:020000040800F2
:10000000700F00203D010008711B0008D91900087D
:1000100000000000000000000000000000000000E0
:10002000000000000000000000000000731B00083A
:100030000000000000000000FB000008BD1B0008DD
:100040004F010008000000004F0100084F010008A8
:100050004F0100084F0100084F0100084F01000840
:10006000000000004F0100084F0100084F01000888
:100070004F0100084F0100084F0100080000000078
:100080004F01000800000000000000004F010008C0
:10009000000000004F0100084F0100084F01000858
:1000A000000000004F010008000000004F010008A0
:1000B0000348854600F0DCF800480047F51C0008BE
:1000C000700F0020084B19680868203080F30988F9
:1000D000022080F31488BFF36F8F3FBCAE4608BC8C
:1000E00004BC62B61847000014000020EFF3108033
:1000F00072B6704780F310887047EFF309800E4B9B
:100100001A6820381060F0C044464D4656465F4697
:10011000F0C008B572B602F039FA62B60CBC1168CC
:1001200008681030F0C8A046A946B246BB4680F326
:1001300009882038F0C81847140000200448804778
:1001400004480047FEE7FEE7FEE7FEE7FEE7FEE7BE
:10015000291C0008B100000830B50B4601460020FC
:100160002022012409E00D46D5409D4205D31D46BD
:100170009540491B2546954040191546521E002DB5
:10018000F1DC30BDF0B51FB40646002082B0054654
:100190004024019100901BE0019922460F46304611
:1001A00000F020F8049A059B801A994110D310465C
:1001B0001946224600F04BF8361A8F410197224625
:1001C00001200021009F00F042F838184D410090B6
:1001D0002046641E0028DFDC019B00982946324639
:1001E00007B0F0BD10B5202A04DB0846203AD04005
:1001F000002110BD0B46D340D0402024A21A9140CC
:100200000843194610BD03460B439B0703D009E082
:1002100008C9121F08C0042AFAD203E00B78037041
:10022000401C491C521EF9D27047D2B201E0027044
:10023000401C491EFBD270470022F6E710B513465A
:100240000A4604461946FFF7F0FF204610BD10B5D8
:10025000202A04DB0146203A9140002010BD914045
:1002600020239C1A0346E3401943904010BD000030
:10027000064C0125064E05E0E36807CC2B430C3CF9
:1002800098471034B442F7D3FFF716FFE02900086F
:10029000002A000870470000F8B505460C46002605
:1002A0000020009092492868884200D103E09149DB
:1002B00091A001F01EFD2068002832D0206801289E
:1002C0002FD0206802282CD02068032829D020684D
:1002D000042826D02068052823D02068062820D0AE
:1002E000206807281DD0206808281AD0206809280F
:1002F00017D020680A2814D020680B2811D0206855
:100300000C280ED020680D280BD020680E2808D0AD
:1003100020680F2805D02068102802D020681128F6
:1003200000D104E0ED21C90073A001F0E2FC01213D
:1003300009036068884203D0491C6068884200D184
:1003400004E06C49891C6CA001F0D3FC0121090771
:10035000E86A884232D0E86A01282FD0E86A022889
:100360002CD0E86A032829D0E86A042826D0E86A55
:10037000052823D0E86A062820D0E86A07281DD07F
:10038000A068884214D0A068012811D0A068022873
:100390000ED0A06803280BD0A068042808D0A0685D
:1003A000052805D0A068062802D0A068072800D13B
:1003B00004E05049891D50A001F09BFC00BF34208F
:1003C000405D012801D10220F8BD012134204155B2
:1003D00000BF2868806804210840800800287BD17D
:1003E0005349606888425BD02868806A227801217E
:1003F000914008432968886201210907E86A884218
:1004000029D0E86A012826D0E86A022823D0E86AC1
:10041000032820D0E86A04281DD0E86A05281AD0ED
:10042000E86A062817D0E86A072814D0A068296867
:1004300049694907490F88420DD028684069C008BA
:10044000C0002968486128684069217A4907490F36
:100450000843296848612068102802D020681128C4
:100460003FD1344880682168102901D1C90401E0D6
:100470000121890508432F4988602068102830D160
:100480002D492E480068FFF767FE0A214843009077
:1004900002E00098401E009000980028F9D120E06A
:1004A0002868816A2278012090408143286881620F
:1004B0002068102802D02068112812D11D488068B9
:1004C0002168102902D1C90402E005E00121890553
:1004D00088431849886004E0A86B20210843A8637A
:1004E000012600BF00213420415500BF30466BE794
:1004F00000240140670700002E2E2F4472697665A4
:1005000072732F53544D3332463078785F48414CE4
:100510005F4472697665722F5372632F73746D3303
:1005200032663078785F68616C5F6164632E630067
:10053000011000000027014040420F001000002081
:1005400070B5044600260025002C01D1012070BDA5
:10055000CD492068884200D104E0FF21A331CBA01F
:1005600001F0C7FB6068002808D001218907606896
:10057000884203D049006068884200D104E0FF212E
:10058000A431C2A001F0B5FBA068002808D0A06883
:10059000082805D0A068102802D0A068182800D12B
:1005A00004E0FF21A531B9A001F0A3FBE068002819
:1005B00002D0E068202800D104E0FF21A631B3A0DA
:1005C00001F097FB2069012802D02069022800D1A0
:1005D00004E0FF21A731ADA001F08BFBA07E002835
:1005E00002D0A07E012800D104E0FF21A831A7A0FD
:1005F00001F07FFBE07E002802D0E07E012800D1E0
:1006000004E0FF21A931A1A001F073FB206A0028BA
:100610000DD001218902206A884208D04900206A51
:10062000884204D003218902206A884200D104E074
:10063000FF21AA3195A001F05CFBE06900280AD0F7
:10064000E069402807D0E069C02804D0FF21C2310A
:10065000E069884200D104E0FF21AB318BA001F0BA
:1006600048FB2420005D002803D02420005D0128E1
:1006700000D104E0FF21AC3184A001F03AFB6069B5
:10068000042802D06069082800D104E0FF21AD31C0
:100690007EA001F02EFBA06A012802D0A06A0028EB
:1006A00000D104E0FF21AE3178A001F022FB207ED2
:1006B000002802D0207E012800D104E0FF21AF31C4
:1006C00072A001F016FB607E002802D0607E012837
:1006D00000D104E0FF21B0316CA001F00AFBA06B57
:1006E000002806D1E063002134200155204600F0A7
:1006F000EDF8A06B1021084000287DD1002EFCD120
:10070000206880680421084080080028F5D1A06B8B
:100710008901884302210843A0632068806880071C
:10072000800F01280DD120680068C007C00F002885
:1007300005D12068C06889030840884201D10120A2
:1007400000E0002000280FD12068C06818218843ED
:10075000A16808432168C86020680069800080089B
:1007600061680843216808612068C06855490840ED
:100770002168C860207E8003617EC9030843A17E92
:1007800049030843A16A012902D00121090300E0BD
:1007900000210843E16808432169022901D10421AD
:1007A00000E0002108432421095D49000843054376
:1007B000E07E01280ED1A07E002803D10120000494
:1007C000054307E0A06B20210843A063E06B0121F3
:1007D0000843E063FF21C231E069884203D0216A07
:1007E000E069084305432068C06828432168C86061
:1007F00001210907E06A00E03FE0884214D0E06A86
:10080000012811D0E06A02280ED0E06A03280BD03C
:10081000E06A042808D0E06A052805D0E06A0628C6
:1008200002D0E06A07280DD120684069C008C000E6
:100830002168486120684069A18D4907490F084334
:10084000216848612068C0681F490840A84208D153
:100850000020E063A06B0221884301210843A063CC
:1008600010E0A06B0221884310210843A063E06BD5
:1008700001210843E063012604E0A06B1021084336
:10088000A0630126304662E6002401402E2E2F444C
:100890007269766572732F53544D333246307878CF
:1008A0005F48414C5F4472697665722F5372632FC3
:1008B00073746D3332663078785F68616C5F616441
:1008C000632E63001902FEFFE7FF3F8310B586B079
:1008D0000446142101A8FFF7AFFC1749206888429D
:1008E00027D100BF1548806949150843134988611D
:1008F0000846806949150840009000BF00BF00BF4E
:100900000E484069090208430C494861084640699D
:10091000012149040840009000BF00BF0120019060
:10092000032002900020039001A90920C00600F0D6
:1009300007F806B010BD000000240140001002407E
:10094000FEB506460C4600270920C00686420BD09D
:10095000B348864208D0B348864205D0B2488642A2
:1009600002D0B248864200D103E0B821B0A001F025
:10097000C0F9208880B2002805D02068000C00044F
:10098000002800D103E0B921A9A001F0B2F9606804
:10099000002826D06068012823D06068112820D064
:1009A000606802281DD0606812281AD0AF496068BC
:1009B000884216D0AE496068884212D0AD4960685E
:1009C00088420ED0AC49606888420AD0AB49606862
:1009D000884206D0AA496068884202D0606803282D
:1009E00000D103E0BA2192A001F083F9A0680028A9
:1009F00005D0A068012802D0A068022800D103E039
:100A0000BB218BA001F075F904E10121B9402068F8
:100A100008400190019800287ED06068012808D025
:100A20006068022805D06068112802D0606812282A
:100A300026D1E068002805D0E068012802D0E068EF
:100A4000032800D103E0CB2179A001F052F9B56869
:100A5000790003208840294681430D467900E068EB
:100A600088400543B56075680120B8402946814338
:100A70000D461021606808400009B84005437560C4
:100A8000F568790003208840294681430D467900A6
:100A9000A06888400543F5606068022802D060685D
:100AA00012282CD10920C006864205D05C48864217
:100AB00002D05E48864200D103E0E3215CA001F051
:100AC00018F92069062800D803E0E42158A001F0B5
:100AD00010F9F80881003046203045587807C10EDB
:100AE0000F208840294681430D467907C90E2069A9
:100AF00088400543F808810030462030455035686D
:100B0000790003208840294681430D4620798007DB
:100B1000800F7900884000E07BE0054335600121CB
:100B2000090760680840884273D100BF5548806952
:100B3000012108435349886108468069C007C00FF6
:100B4000009000BF00BF5048B90889004558B80759
:100B5000010F0F208840294681430D460920C00619
:100B6000864201D100200FE02D48864201D10120AC
:100B70000AE02C48864201D1022005E02A4886423C
:100B800001D1032000E00520B907090F8840054383
:100B90003D48B908890045503C48056829460198F8
:100BA00081430D460121090460680840884201D153
:100BB00001980543354805604568294601988143F9
:100BC0000D460121490460680840884201D101981E
:100BD00005432E48456085682946019881430D46A6
:100BE0000121090560680840884201D10198054348
:100BF00026488560C5682946019881430D46012134
:100C0000490560680840884201D1019805431F48A2
:100C1000C5607F1C2068F840002800D0F5E6FEBDC6
:100C20000004004800080048000C00480014004878
:100C30002E2E2F447269766572732F53544D3332C2
:100C4000463078785F48414C5F4472697665722F10
:100C50005372632F73746D3332663078785F6861D6
:100C60006C5F6770696F2E63000000000000111058
:100C700000002110000031100000121000002210AE
:100C80000000321000100240080001400004014042
:100C900070B506460C461546A0B2002804D0200CBC
:100CA0000004002800D104E0FF21A63109A001F0D2
:100CB00020F8002D01D0012D00D104E0FF21A73143
:100CC00004A001F016F8002D01D0B46100E0B46278
:100CD00070BD00002E2E2F447269766572732F53FB
:100CE000544D3332463078785F48414C5F447269E6
:100CF0007665722F5372632F73746D33326630785A
:100D0000785F68616C5F6770696F2E630000000038
:100D10000148006870470000040000200348006894
:100D20000349097840180149086070470400002011
:100D30000C00002010B50648006810210843044943
:100D40000860002000F006F800F02EF8002010BD2A
:100D50000020024070B50446104801787D20C00094
:100D6000FFF7FAF9064631460D480068FFF7F4F937
:100D7000054600F015FE002801D0012070BD042CAE
:100D800007D200222146501E00F02EF805480460CC
:100D900001E00120F2E70020F0E700000C00002055
:100DA000100000200800002008B500BF0D48806931
:100DB000012108430B49886108468069C007C00FBC
:100DC000009000BF00BF00BF0846C0690904084387
:100DD0000449C8610846C06909040840009000BF82
:100DE00000BF08BD0010024070B505460C4616460F
:100DF000042C00D203E08B2103A000F07AFF2146EF
:100E0000284600F02BFF70BD2E2E2F4472697665A8
:100E100072732F53544D3332463078785F48414CCB
:100E20005F4472697665722F5372632F73746D33EA
:100E300032663078785F68616C5F636F7274657872
:100E40002E63000070B504460D46002C01D1012030
:100E500070BD2078C007C00F002809D1022120688A
:100E60000840022804D0042120680840042800D14A
:100E700003E07F497FA000F03CFF002D01D0012D51
:100E800000D104E07A49491C7AA000F032FF87487B
:100E90000068C007C00FA8420ED28448006840080E
:100EA000400028438149086008460068C007C00F19
:100EB000A84201D00120CBE7022120680840022887
:100EC00035D1042120680840042807D178484068BB
:100ED000072109028843401875494860A068002826
:100EE00017D0A068802814D0A068902811D0A068DE
:100EF000A0280ED0A068B0280BD0A068C02808D0C9
:100F0000A068D02805D0A068E02802D0A068F0280A
:100F100000D104E05649203156A000F0EAFE6448B2
:100F20004068F0218843A1680843614948602078FF
:100F3000C007C00F00284AD06068002805D060684C
:100F4000012802D06068022800D104E04849273116
:100F500048A000F0CEFE6068012808D1544800681F
:100F6000012149040840002815D1012070E760687C
:100F7000022808D14E48006801214906084000288F
:100F800009D1012064E74A4800680221084000288E
:100F900001D101205CE74648406880088000616814
:100FA000084343494860FFF7B3FE064607E0FFF7F2
:100FB000AFFE801B3F49884201D9032048E73C48E7
:100FC00040680C210840616889008842EFD13748A9
:100FD0000068C007C00FA8420ED934480068400816
:100FE000400028433149086008460068C007C00F28
:100FF000A84201D001202BE70421206808400428E2
:1010000024D1E068002812D00902E06888420ED09E
:1010100005210902E068884209D003214902E068FD
:10102000884204D007210902E068884200D104E028
:10103000E12189000FA000F05CFE1D4840680721F7
:1010400009028843E16808431949486000F038F80C
:1010500017494968F02211400909174A515CC840F4
:10106000164908600020FFF775FE0020F0E600003A
:10107000160300002E2E2F447269766572732F536B
:10108000544D3332463078785F48414C5F44726942
:101090007665722F5372632F73746D3332663078B6
:1010A000785F68616C5F7263632E630000200240AA
:1010B0000010024088130000BC2900081000002026
:1010C000F0B589B027A001460EC9C06805AC0EC4B2
:1010D000089028A001460EC9C06801AC0EC4049057
:1010E00000240025002700260020009025484468A1
:1010F0000C20204000282DD0042802D0082828D118
:1011000002E02148009028E00F2080042040800C5D
:1011100005A90E5C1B48C06A0007000F01A90D5C01
:101120000120000420400121090488420AD12A46F6
:10113000002315481946FFF725F8314600F075FDE4
:10114000074604E01148314600F06FFD074600975E
:1011500003E000BF0C48009000BF00BF009809B03A
:10116000F0BD000002030405060708090A0B0C0D78
:101170000E0F10100102030405060708090A0B0CE4
:101180000D0E0F100010024000127A0000093D0001
:10119000FEB50446002C01D10120FEBD20680028C8
:1011A00018D02078C007C00F002813D10221206872
:1011B000084002280ED0082120680840082809D0DD
:1011C000042120680840042804D010212068084029
:1011D000102800D104E0FF213A31F7A000F089FD8A
:1011E0002078C007C00F002872D06068002805D0A2
:1011F0006068012802D06068052800D104E0FF2162
:101200004031EDA000F075FDF94840680C21084020
:1012100004280BD0F64840680840082812D1F4484A
:10122000406801210904084088420BD1F048006859
:1012300001214904084000286CD06068002869D169
:101240000120AAE700BF6068012807D1E8480068CC
:10125000012109040843E649086031E0606800287C
:101260000ED1E3480068012109048843E049086081
:1012700008460068012189048843DD4908601FE0B1
:10128000606805280ED1DA48006801218904084306
:10129000D749086008460068012109040843D44979
:1012A00008600DE0D2480068012109048843D04954
:1012B000086008460068012189048843CC49086019
:1012C00000BF6068002813D0FFF722FD054607E045
:1012D00020E0FFF71DFD401B642801D903205CE7D7
:1012E000C34800680121490408400028F1D011E0FA
:1012F000FFF70EFD054606E0FFF70AFD401B6428D8
:1013000001D9032049E7BA4800680121490408408F
:101310000028F1D1022120680840022876D1E06837
:10132000002802D0E068012800D104E0FF217431D8
:10133000A1A000F0DEFC20691F2800D804E0FF21F6
:1013400075319DA000F0D5FCA94840680C210840EB
:1013500000280BD0A6484068084008281BD1A448A4
:101360004068012109040840002814D1A048006801
:1013700002210840002804D0E068012801D00120A3
:101380000BE79B480068F82188432169C90008439E
:10139000974908603AE0E068002820D09448006847
:1013A0000121084392490860FFF7B2FC054606E0B8
:1013B000FFF7AEFC401B022801D90320EDE68C4864
:1013C0000068022108400028F2D089480068F8210E
:1013D00088432169C90008438549086016E08448AC
:1013E00000684008400082490860FFF791FC05460C
:1013F00006E0FFF78DFC401B022801D90320CCE654
:101400007B480068022108400028F2D108212068AA
:10141000084008283DD1E069002802D0E069012891
:1014200000D104E0FF21B53163A000F062FCE06967
:10143000002817D06E48406A012108436C49486271
:10144000FFF766FC054606E0FFF762FC401B02283A
:1014500001D90320A1E66648406A0221084000281D
:10146000F2D016E06248406A400840006049486295
:10147000FFF74EFC054606E0FFF74AFC401B02283A
:1014800001D9032089E65A48406A02210840002811
:10149000F2D104212068084004286FD10020019077
:1014A000A068002805D0A068012802D0A0680528FF
:1014B00000D104E0FF21E1313FA000F01AFC4C48CC
:1014C000C06901210907084000280ED100BF484823
:1014D000C06908434649C8610846C0690904084014
:1014E000009000BF00BF0120019042480068FF212A
:1014F00001310840002816D13E48006808433D49A4
:101500000860FFF705FC054606E0FFF701FC401BFD
:10151000642801D9032040E636480068FF210131E4
:1015200008400028F1D000BFA068012806D130484B
:10153000006A012108432E4908622CE0A0680028B7
:101540000CD12B48006A400840002949086208462F
:10155000006A04218843264908621CE0A068052827
:101560000DD12348006A0421084321490862084636
:10157000006A012108431E4908620CE062E01C4831
:10158000006A400840001A4908620846006A0421BF
:1015900088431749086200BFA068002835D0FFF7CC
:1015A000B7FB05462AE0FFF7B3FB401B1249884210
:1015B00024D90320F1E500002E2E2F4472697665B0
:1015C00072732F53544D3332463078785F48414C14
:1015D0005F4472697665722F5372632F73746D3333
:1015E00032663078785F68616C5F7263632E630087
:1015F000001002400070004088130000E448006AB8
:10160000022108400028CED011E0FFF781FB0546FB
:1016100007E0FFF77DFB401BDE49884201D903202C
:10162000BBE5DB48006A022108400028F1D101989F
:10163000012806D1D648C069012109078843D44949
:10164000C86100BF102120680840102871D160696E
:10165000002806D06069012803D06069401D002879
:1016600000D103E0CC49CD4800F043FBA0691F281E
:1016700000D804E0C849491CC84800F03AFB60693A
:10168000012826D1C248406B04210843C049486361
:101690000846406B01210843BD494863FFF738FB0A
:1016A000054606E0FFF734FB401B022801D9032062
:1016B00073E5B748406B022108400028F2D0B448D7
:1016C000406BF8218843A169C9000843B0494863C9
:1016D0002FE06069401D00280FD1AD48406B042108
:1016E0008843AB4948630846406BF8218843A169A9
:1016F000C9000843A64948631BE0A548406B042184
:101700000843A34948630846406B400840004863CB
:10171000FFF7FEFA054606E0FFF7FAFA401B02283B
:1017200001D9032039E59A48406B0221084000287E
:10173000F2D1206A002805D0206A012802D0206A50
:10174000022800D104E094497431944800F0D1FAA1
:10175000206A00287ED08E4840680C210840082866
:1017600079D0206A022877D1606A002804D001214C
:101770000904606A884200D104E087497D318748C6
:1017800000F0B7FAA06A002844D001218904A06AB9
:1017900088423FD04900A06A88423BD00321890497
:1017A000A06A884236D001210905A06A884231D05A
:1017B00005218904A06A88422CD00321C904A06AAB
:1017C000884227D007218904A06A884222D00121BB
:1017D0004905A06A88421DD009218904A06A88426F
:1017E00018D00521C904A06A884213D00B218904AE
:1017F000A06A88420ED003210905A06A884209D058
:101800000D218904A06A884204D00721C904A06A76
:10181000884200D104E0A9218900604800F069FAFB
:10182000E06A002830D0E06A01282DD0E06A022862
:101830002AD0E06A032827D0E06A042824D0E06A8E
:10184000052821D0E06A06281ED0E06A07281BD0B0
:10185000E06A02E09AE07FE064E0082814D0E06AE1
:10186000092811D0E06A0A280ED0E06A0B280BD0B4
:10187000E06A0C2808D0E06A0D2805D0E06A0E283E
:1018800002D0E06A0F2800D104E043497F31434889
:1018900000F02FFA3E4800680121090688433C49C0
:1018A0000860FFF735FA054606E0FFF731FA401BFE
:1018B000022801D9032070E4354800680121490657
:1018C00008400028F1D100BF3148C06A000900017A
:1018D000E16A08432E49C862616AA06A08432C493C
:1018E00049683D221204914308432949486000BFDA
:1018F0000846006801210906084325490860FFF7EA
:1019000007FA054606E0FFF703FA401B022801D953
:10191000032042E41E4800680121490608400028CF
:10192000F1D033E01A4800680121090688431849BC
:101930000860FFF7EDF9054606E0FFF7E9F9401BFF
:10194000022801D9032028E4114800680121490632
:1019500008400028F1D119E0206A012800D11CE4D8
:101960000B484668C76A012000043040616A88421B
:101970000AD13907090FE06A814205D10F2080049E
:101980003040A16A884201D0012006E4002004E42E
:10199000001002408813000026020000B81500085D
:1019A00070B504462546681E0949884201D90120C0
:1019B0000CE0681E074948610321081F00F04EF93A
:1019C00000200449886107200861002070BD0000E4
:1019D000FFFFFF0000E000E000BFFEE70EB50020C3
:1019E0000090019002901E481E4908600020486047
:1019F00000211C488160C160012101610421416115
:101A00000021017641768176C176FF21C231C16124
:101A10000021016224300170012124388162FEF727
:101A20008FFD002801D0FEF735FC0020009001203A
:101A3000000301900004029069460A48FEF72CFC5E
:101A4000002801D0FEF726FC1020009069460548CA
:101A5000FEF722FC002801D0FEF71CFC0EBD0000A2
:101A6000002401404002002000B587B01C22064936
:101A70006846FEF7C8FB0021684600F062F903499A
:101A8000086007B000BD0000A02900080000002089
:101A900000B587B0142102A8FEF7CEFB00BF304886
:101AA00040690121890508432D494861084640697C
:101AB000012189050840019000BF00BF00BF2848F0
:101AC0004069491108432649486108464069012197
:101AD00049040840019000BF00BF00BF2048406992
:101AE000490008431E4948610846406901218904AC
:101AF0000840019000BF00BF0022032149030920D4
:101B0000C006FFF7C5F80320029003900020049060
:101B100002A91448FEF714FF134802900320039013
:101B20000020049002A90920C006FEF709FF022048
:101B30000290032003900020049002A90B48FEF7B6
:101B4000FFFE032040030290012003900020049038
:101B5000059002A90920C006FEF7F2FE07B000BDFD
:101B60000010024000140048FE0600000004004877
:101B70007047704700BF0022012189030920C00679
:101B8000FFF786F80022012149030920C006FFF76C
:101B90007FF8094800F0C3F8012291030920C0062C
:101BA000FFF776F8012251030920C006FFF770F80D
:101BB000014800F0B4F8DEE7DC05000010B5FFF7DF
:101BC000ADF800F0C5FD012801D000F03BFD10BDCF
:101BD00000B591B0302105A8FEF72EFB0020019042
:101BE00002900390049012200590012008900A9022
:101BF000102009900B9000200D9005A8FFF7C8FA5F
:101C0000002801D0FEF746FB07200190002002903B
:101C100003900490002101A8FFF714F9002801D0D7
:101C2000FEF738FB11B000BD7047F8B582B28BB239
:101C3000040C0D0C10465843002126465E43370C19
:101C400036048019794116466E43370C36048019E4
:101C5000794126466E438919F8BD000010B5002869
:101C600019DB1A4A03231B02D21883089B00D2589F
:101C70008307DC0EFF23A3409A438B071B0E8407C8
:101C8000E40EA3401A43114B032424021B198408B9
:101C9000A4001A5118E00E4A03071B0F083B9B08CB
:101CA0009B00D2588307DC0EFF23A3409A438B0787
:101CB0001B0E8407E40EA3401A43054B0407240FB0
:101CC000083CA408A4001A5110BD000000E100E087
:101CD0001CED00E002E008C8121F08C1002AFAD17A
:101CE00070477047002001E001C1121F002AFBD19C
:101CF00070477047FFF71EF8FFF76AFFFFF7C8FE4F
:101D0000FFF76CFEFFF7B0FE00F016F800BFFEE72D
:101D100001460020842901D0CA1C1018704770B5F4
:101D200004462546002D01D0294600E00121084641
:101D300000F0B8FB002070BD10B500F0D5FB00200E
:101D400010BD7FB504460D466069002814D0A06917
:101D5000002811D00820205EFFF7DAFF06466169EF
:101D6000A0690096019102902B4622692168606863
:101D700000F0ABFC039013E00820205EFFF7C8FFE3
:101D8000064603A800960190238A9AB22B46216842
:101D9000606800F069FC012802D0002004B070BD2A
:101DA0000398FBE7F8B505460E461748076817483D
:101DB0000068001D00F0B0FA681C002808D1002E51
:101DC00006D012480168091D114800F0F0FA1AE027
:101DD0007C190E4800684460BC4207D20B48016879
:101DE000091D0C48006800F0C7FA0CE007480168BC
:101DF000091D0948006800F0BFFA084800688442DD
:101E000001D206480460F8BD28000020140000201C
:101E10005C0300201C00002018000020440000206B
:101E200010B5044600F0D0FA20480068401C1F4955
:101E300008601F480068002808D11D480460084653
:101E4000006801280ED100F01FF90BE01948006866
:101E5000002807D116480068C06AE16A884201D8A4
:101E60001348046014480068401C13490860134973
:101E7000E06A0968884202D91049E06A08601422C1
:101E8000E16A51430E4A8818211D00F090FA00F0D3
:101E9000A9FA08480068002807D005480068C06A09
:101EA000E16A884201D200F0F1FA10BD240000205E
:101EB0001400002030000020400000202C000020F2
:101EC0008002002010B516E000F07EFA0C48C068D1
:101ED000C468201D00F020FA0A480068401E094925
:101EE000086009480068401E0749086000F07AFA57
:101EF000204600F00BF8044800680028E4D110BD2B
:101F000048030020240000202000002010B50446D3
:101F10005120005D002806D1206B00F077FA2046A2
:101F200000F074FA13E05120005D012803D120462F
:101F300000F06CFA0BE05120005D022801D1012075
:101F400000E00020002802D172B600BFFEE710BDFD
:101F500030B50123DB0217484407640F002C05D07D
:101F6000C01DC008C000134C041B1B1B0246124CB2
:101F700022600024104D6C60D0180838C008C000E2
:101F80000E4C206000240D4D2D686C600B4D2D68AB
:101F90002C601146441A4C60084C24680C60084DB3
:101FA0004C682C60074D4C682C600124E407064DFA
:101FB0002C6030BD7003002050000020580000202D
:101FC000600000205C0000206400002000BFFFF7DC
:101FD00079FF034800680128F9D900F057FAF6E7BD
:101FE00080020020FFB581B00F460A9E0C9C216B39
:101FF0000398401E8000081800900098C008C00098
:10200000009000984007400F002801D1012000E017
:102010000020002802D172B600BFFEE7002508E0CC
:10202000795D204634304155785D002800D102E0CA
:102030006D1C102DF4D300BF002143200155072E45
:1020400000D30626E66266640020A064201D00F02E
:1020500090F92046183000F08CF924610720801B8D
:10206000A06164620020E064002150200155049AC0
:102070000199009800F040F920600B98002801D0E9
:102080000B98046005B0F0BD10B5002406E01421E3
:1020900061430E4A881800F05FF9641C072CF6D3E0
:1020A0000B4800F059F90B4800F056F90A4800F0C7
:1020B00053F90A4800F050F9094800F04DF9044876
:1020C0000849086003480849086010BD80020020E4
:1020D0000C030020200300203403002048030020CC
:1020E0005C030020180000201C00002010B50146F1
:1020F000164800E0006803688B42FBD30246436841
:102100009B188B4204D143684C681B1943600146FD
:102110000A464B689B180468A34211D10C4C036813
:102120002468A34208D04B68046864681B194B609C
:1021300003681B680B6005E0054B1B680B6001E042
:1021400003680B60884200D0016010BD5000002081
:10215000580000200B4909680968002901D10121B4
:1021600000E00021002904D00021C943064A116083
:1021700006E004490968C968C868034A41681160F3
:1021800070470000180000204400002010B5002017
:102190000749086188617D21C90006480068FDF78C
:1021A000DBFF401E024948610720086110BD0000A6
:1021B00000E000E01000002007480068401C0028F4
:1021C00001D1012000E00020002802D172B600BF3A
:1021D000FEE772B600BFFEE768000020F8B50446CF
:1021E0000020009000F0CAF93E480068002801D1A4
:1021F000FFF7AEFE3C4800682040002861D1002C6B
:1022000015D008346007400F002810D06007400F39
:102210000821081A04196007400F002801D1012085
:1022200000E00020002802D172B600BFFEE7002CBB
:1022300047D02E480068844243D82D4E304605686A
:1022400001E02E462D686868A04202D22868002866
:10225000F7D124480068854233D0306808300090B8
:10226000286830606868001B102813D92F19780778
:10227000400F002801D1012000E00020002802D1F9
:1022800072B600BFFEE76868001B78606C60384675
:10229000FFF72CFF154968680968081A1349086098
:1022A0000846006813490968884203D20F4800684D
:1022B000104908600C496868096808436860002094
:1022C000286000F0F5FA00984007400F002801D17F
:1022D000012000E00020002802D172B600BFFEE716
:1022E0000098F8BD58000020640000205C00002029
:1022F0005000002060000020001F01231B06036027
:10230000001F0160001F034B036014380260203877
:1023100070470000B921000801460A694B688868C7
:1023200098608B68486858605068884201D1886816
:102330005060002008611068401E106010687047EF
:10234000034B0360034B0B60602313607047000076
:102350006C000020C00000200146083141600021CF
:10236000C943816001460831C160016100210160FB
:10237000704700210161704710B502460B685C1C74
:10238000002C01D1106907E01046083000E04068D9
:10239000446824689C42FAD944684C604C68A16047
:1023A000886041600A611468641C146010BD426852
:1023B0004A6093688B609368596091600861036814
:1023C0005B1C03607047000072B605480068401C43
:1023D00003490860BFF34F8FBFF36F8F7047000052
:1023E0006800002008480068002802D172B600BFCB
:1023F000FEE705480068401E03490860084600687B
:10240000002800D162B670476800002070B506460B
:102410003546002E35D0083D2C461A4960680968BB
:102420000840002801D0012000E00020002802D14F
:1024300072B600BFFEE72068002801D1012000E04D
:102440000020002802D172B600BFFEE70D49606887
:1024500009680840002814D02068002811D10949D3
:10246000606809688843606000F088F80649606821
:1024700009684018044908602046FFF737FE00F05D
:1024800017FA70BD640000205C00002001200007E6
:1024900003494860BFF34F8FBFF36F8F7047000051
:1024A00000ED00E070B504460025002C14D00D4866
:1024B0000068002801D1012000E00020002802D19E
:1024C00072B600BFFEE700F059F800212046FFF782
:1024D00069FC00F0EDF90546002D01D1FFF7D6FFAC
:1024E00070BD00004C00002010B586B000200590A3
:1024F000049003AA04A905A8FFF722FF002204996B
:102500000598134600920191029015A11648039A6E
:1025100000F0DBF81549086008460068002801D083
:10252000012400E00024012C0DD172B60020C0432C
:102530000F49086001200F49086000200E4908601B
:1025400000F064F80AE0601C002801D0012000E0DF
:102550000020002802D172B600BFFEE706B010BD11
:1025600049444C4500000000CD1F000848000020F1
:1025700044000020300000202800002002480068AD
:10258000401C0149086070474C0000201A48006850
:10259000002803D00120194908602CE000201749C9
:1025A00008601748016805E0002902D172B600BF33
:1025B000FEE7491E14204843124A1058002801D152
:1025C000012000E000200028EED114224A430D4BE8
:1025D000D01842685268426002460832436893420B
:1025E00002D14268526842604268D268064B1A6063
:1025F0000348016000BF70474C00002038000020F5
:102600002C000020800200201400002010B50B4890
:10261000006AFF2109040843084908620846006A65
:10262000FF210906084305490862FFF7AFFD0020B6
:1026300003490860FDF746FD002010BD00ED00E0F5
:102640006800002010B5FDF751FD044600F092F837
:10265000002803D001200007024948602046FDF70A
:1026600049FD10BD00ED00E0FFB585B01746B8008C
:10267000FFF7B4FD0646002E0BD05420FFF7AEFD49
:102680000446002C01D0266304E03046FFF7BEFE6E
:1026900000E00024002C13D000215120015500221D
:1026A0000F990E986B4613C303923A46089B0699FE
:1026B0000598FFF797FC2046FFF7B2FB012501E0E4
:1026C0000025ED43284609B0F0BDFFB585B00E9F4B
:1026D0000F9E109C002E01D0012000E00020002859
:1026E00002D172B600BFFEE7002C01D0012000E04D
:1026F0000020002802D172B600BFFEE754200390EC
:102700000398542801D1012000E00020002802D1C4
:1027100072B600BFFEE7002C15D0002E13D0254660
:102720002E6302212C4651204155002004A9009718
:1027300002950191039005A80FC8FFF753FC2846A6
:10274000FFF76EFB01E000200490049809B0F0BD93
:1027500006490968002901D1012006E004490968F9
:10276000002901D1022000E0002070473000002045
:102770004C000020F8B50020009042480068002876
:1027800072D141480068451C3F480560002D1CD1AE
:102790003E4800680068002801D1012000E00020C8
:1027A000002802D172B600BFFEE7384807683848F3
:1027B0000068364908603648076036480068401CA3
:1027C00034490860FFF7C6FC00BF33480068854203
:1027D0003DD300BF2D4800680068002801D10120CA
:1027E00000E00020002804D00020C0432A490860EF
:1027F0002CE026480068C068C4686668B54202D20A
:102800002548066022E0201DFFF786FDA06A00280B
:1028100003D020461830FFF77FFD2049E06A0968A1
:10282000884202D91D49E06A08601422E16A5143D6
:102830001B4A8818211DFFF7BAFD1A49E06A09688A
:10284000C96A8842C6D301200090C3E700BF15487B
:102850000068C06A1421484311490858012801D969
:102860000120009005E0FFE70F480068401C0E497A
:1028700008600E480068002801D0012000900098F0
:10288000F8BD00004C0000202800002018000020A7
:102890001C0000203C000020440000202C000020F0
:1028A00080020020140000203400002038000020A6
:1028B00070B50024002632480068002802D172B6A4
:1028C00000BFFEE7FFF780FD2D480068401E2C4941
:1028D00008600846006800284DD12A480068002892
:1028E00049D022E02848C068C46820461830FFF765
:1028F00013FD201DFFF710FD2449E06A0968884296
:1029000002D92249E06A08601422E16A5143204A50
:102910008818211DFFF74BFD1E49E06A0968C96A46
:10292000884202D301201C4908601748006800282B
:1029300001D1012000E000200028D3D0002C01D0DC
:10294000FFF708FC15480568002D0DD000BFFFF704
:1029500011FF002802D001200F4908606D1E002DD4
:10296000F5D100200D4908600B480068002802D00E
:102970000126FFF78BFDFFF735FD304670BD0000E7
:102980004C00002024000020340300202C000020F4
:1029900080020020140000203800002034000020B5
:1029A000D4290008751B000800000000000000008A
:1029B00060000000000000000000000000000000B7
:1029C00000000000010203040607080900000000DF
:1029D0000102030464656661756C745461736B0075
:1029E000002A0008000000206C000000D41C000831
:1029F0006C2A00086C000020040F0000E41C000892
:102A000000000000000000000400000001000000C1
:102A100000127A000000000000000000000000002A
:102A200000000000000000000000000000000000A6
:102A30000000000000000000000000000000000096
:102A40000000000000000000000000000000000086
:102A50000000000000000000000000000000000076
:0C2A60000000000000000000AAAAAAAAC2
:04000005080000B13E
:00000001FF
